:10000000D5C347C5EEC3EDC3ECC3EBC3EAC3E9C335
:10001000E8C3E7C3E6C3E5C3E4C3E3C3E2C309023D
:100020002200010100801909040000010300010001
:100030000921010100012223000705810308000AAC
:1000400012011001000000086D040FC3000101023D
:100050000001160345006100730079004C006F0039
:10006000670067006500720012036F0062006400A1
:10007000650076002E006100740004030904081571
:10008000010100110012001700080013000400070E
:1000900000370008001B000800280101002C002C7C
:1000A000002C002C002C002C002C002C022D022DEA
:1000B000022D022D022D0028002C002C002C002CDB
:1000C000002C022D002D00350035002C002C002CBA
:1000D000002C002C00350035002D022D0038003892
:1000E0000028002C002C002C00380035002C002C9F
:1000F000002C002C002C002C002C002C002C002CA0
:10010000002C002C002C003500310028002C002C85
:100110000031002C002C002C002C002C002C002C7A
:10012000002C002C002C002C002C002C002C022D6C
:10013000002C002C0031022D0028002C0031002C56
:10014000002C002C002C002C002C002C002C002C4F
:10015000022D002D002D003500350035002C022722
:1001600000350035002C0227022D022D022D00281B
:1001700000310031002C002C002C002C002C002C15
:10018000002C002C0038002C002C002C022D022DFD
:10019000022D002C002C002C022D002D0035002CEF
:1001A000002C002C0035002D022D00280031002CE1
:1001B000002C002C002C002C002C002C002C002CDF
:1001C000002C022D002D0035002C002C002C0035B9
:1001D000002D022D002C002C002C002C002C002CBB
:1001E000002C002C002C003100280031002C002CA9
:1001F000002C002C002C002C002C002C002C003893
:10020000002C002C002C002C002C002C002C002C8E
:10021000002C0031002C002C002C002C002C002C79
:10022000002C002C002C003100280031002C002C68
:10023000002C002C002C002C002C002C0031002C59
:10024000002C002C002C002C002C002C002C002C4E
:10025000002C002C0031002C002C002C002C002C39
:1002600002260212002C002C00310028002C003144
:10027000002C002C002C002C002C002C0031002C19
:10028000002C002C002C002C002C002C002C002C0E
:10029000002C002C002C002C0031002C002C002CF9
:1002A000002C002C002C002C002C00310028002CED
:1002B0000031002C002C002C002C002C002C0031D4
:1002C000002C002C002C02120227002C002C002CE9
:1002D000002C002C002C002C002C0031002C002CB9
:1002E000002C002C002C002C002C00310028002CAD
:1002F00000380031002C002C002C002C002C002C8D
:100300000031002C002C002C002C002C002C002C88
:10031000002C002C002C002C0031002C002C002C78
:10032000002C002C002C002C00380028002C003859
:10033000002C0031002C022D002D002D022D002C50
:100340000031002C002C002C002C002C002C002C48
:10035000002C002C0038002D022D002C002C002C2D
:10036000022D002D003502270028002C002C002C27
:1003700000380035002C002C002C002C0031002C03
:100380000035002D022D002C002C002C022D002DFC
:100390000035002C002C002C003500350035022DD6
:1003A000022D00380028002C002C0031002C002CDD
:1003B000002C00310031002C002C0035002D022DC6
:1003C000002C003500350035002C022D002D0035A5
:1003D0000035002D002D002D0035002C002C0031A3
:1003E0000028002C002C0031002C002C002C0031A7
:1003F000002C0031002C002C002C002C0035002D8E
:10040000002D00350035002C002C0038002C003168
:10041000002C002C002C002C002C002C0035002D72
:10042000022D0028002C002C002C0031002C002C68
:10043000002C0031002C0031002C002C002C002C52
:10044000002C002C002C002C002C002C002C002C4C
:10045000002C002C002C002C002C002C002C002C3C
:10046000002C002C0035002D022D0028002C002C23
:10047000002C002C0031002C002C002C0035002D0D
:100480000031002C002C002C002C002C002C002C07
:10049000002C002C002C002C002C002C002C002CFC
:1004A000002C002C002C002C002C002C002C002CEC
:1004B000002C00350035002D002D022D022D002CC2
:1004C000022D002D00350035002D00340028002CB1
:1004D000002C002C002C002C0035002D022D002CAF
:1004E000002C002C0031002C002C002C002C002CA7
:1004F000002C002C002C002C002C002C002C002C9C
:10050000002C002C002C002C002C002C002C002C8B
:10051000002C002C002C002C002C002C002C002C7B
:100520000038002C002C002C002C002C003100285E
:10053000002C002C002C002C002C002C002C002C5B
:1005400000350035002D002D0031002C002C002C32
:10055000002C002C002C002C002C002C002C002C3B
:10056000002C002C002C002C002C002C002C002C2B
:10057000002C002C002C002C002C002C002C002C1B
:10058000002C002C002C002C002C002C0038002803
:10059000002C002C002C002C002C002C002C002CFB
:1005A000002C002C0031002C002C0031002C002CE1
:1005B000002C002C002C002C002C002C002C002CDB
:1005C000002C002C002C002C002C002C002C002CCB
:1005D000002C002C002C002C002C002C002C002CBB
:1005E000002C002C002C002C002C00380028002CA3
:1005F000002C002C002C002C002C002C002C002C9B
:10060000002C0031002C002C002C0031002C002C80
:10061000002C002C002C002C002C002C002C002C7A
:10062000002C002C002C002C022D002C002C002C67
:10063000002C002C002C002C002C002C002C002C5A
:10064000002C022D002D00350028002C002C002C41
:10065000002C002C002C002C002C002C002C003135
:10066000002C002C003800350035002D002D022D07
:10067000002C002C002C022D022D002D002D002D11
:1006800000350035002C002C002C002C002C002CF8
:10069000002C002C002C002C022D002D00350028F1
:1006A000002C002C002C002C002C002C002C002CEA
:1006B000002C002C0031002C002C0031002C002CD0
:1006C000002C002C002C002C002C002C002C002CCA
:1006D000002C002C002C002C002C002C002C002CBA
:1006E000002C022D022D002D002D00350035002894
:1006F000002C002C002C002C002C002C002C002C9A
:10070000002C002C0031002C002C0031003500356D
:10071000002D002D022D022D002C002C002C002C71
:10072000002C022D022D022D002D002D002D003554
:1007300000350028002C002C002C002C002C002C54
:10074000002C002C002C002C0031002C002C00313F
:10075000002C002C002C002C002C002C0035003527
:100760000035003500350028002C002C002C002C12
:10077000002C002C002C002C002C002C0031002C14
:10078000002C00310028FFFF05010906A101050723
:1007900019E029E7150025017501950881029501E9
:1007A00075082565190029658100C00011241FBE48
:1007B000CFE5D1E0DEBFCDBF10E0A0E6B0E0E4E1E0
:1007C000FEE002C005900D92A236B107D9F720E0F5
:1007D000A2E6B0E001C01D92AB39B207E1F7B6D294
:1007E00017C30ECCCF93C62F2091700024FF07C0F3
:1007F0002091710038E823272093710003C02AE577
:1008000020937000DC01E2E7F0E09C2F9E0F8D91B9
:100810008193892F8E1B1816D4F36C2F82E790E0FA
:1008200034D1CC5FC0937000CF910895CF93DF9304
:1008300080918100835087FDA3C090917E0020911C
:100840007D002D3209F09AC0883009F097C0CCE0C5
:10085000D0E0C91BD109CB57DF4F83EC80936500F3
:100860008AE580936100109263008881807619F098
:10087000CE016AD27AC09A8110926E00898181116C
:1008800006C010926F002EE630E082E06AC085302C
:1008900019F49093820062C0863009F049C08B81C0
:1008A000813019F480E490E01AC0823041F48EE186
:1008B00090E09093800080937F0082E235C0833087
:1008C000F1F4911108C08AE790E090938000809342
:1008D0007F0084E029C0913041F488E690E0909355
:1008E000800080937F0082E11FC09230E1F482E5B6
:1008F00090E09093800080937F0086E115C0813264
:1009000041F480E390E09093800080937F0089E041
:100910000BC0823241F488E897E090938000809386
:100920007F0083E201C080E090E4909363001DC0EB
:10093000883069F0893019F4909384000FC08A30B0
:1009400049F08B3059F48BE48093710007C024E8A0
:1009500030E002C02EE630E081E003C02EE630E059
:1009600080E03093800020937F009F81911104C02C
:100970009E81981708F4892F80936000109281005F
:100980008091610084FF46C0809160008F3F09F430
:1009900041C0C82F893008F0C8E08C1B80936000EC
:1009A0008091650098E8892780936500CC2331F118
:1009B00020917F00309180008091630086FF0BC002
:1009C000A6E6B0E0F9018C2F8A0F94919D933196A1
:1009D0008A13FBCF09C0D901E6E6F0E08C2F8E0F19
:1009E0009D9191938E13FCCF8FEF8C0F90E0019629
:1009F000820F931F9093800080937F006C2F86E678
:100A000090E043D0CC5FCC3019F08FEF8093600042
:100A1000C093610084E196B3957031F48150D9F7A9
:100A20001092820010927C00C1E08111C0E08091A0
:100A300062008C1729F0C11101C085D1C0936200FA
:100A4000DF91CF91089585B7836085BF8BB78064B0
:100A50008BBF8BE4809371008AE5809370000895CA
:100A6000A82FB92F80E090E041E050EA609530E097
:100A700009C02D9182279795879510F08427952797
:100A8000305EC8F36F5FA8F30895EADF8D939D93FE
:100A90000895CF93CFB7CF93C395B29BE9F7B29B9D
:100AA00009C0B29B07C0B29B05C0B29B03C0B29BFA
:100AB00001C0A3C0DF93C0917E00DD27CB57DF4F7D
:100AC000B29B02C0DF91EBCF2F930F931F9306B31E
:100AD0002FEF02FB20F94F933F9316B34FEF0127FF
:100AE00002FB21F93BE031C04E7F012F16B321609C
:100AF00028C0102F4D7F2260000006B329C04B7F15
:100B00002460012F000016B32BC016B3477F286066
:100B10002AC04F7E06B320612CC04F7D16B32062E1
:100B20002FC04F7B06B3206432C0422706B34993DF
:100B30004FEF0000102712FB20F916B31570C9F112
:100B4000297F91F2012702FB21F906B3237F89F265
:100B5000315058F1102712FB22F916B3277E79F293
:100B6000012702FB23F92F7C81F206B3102712FB29
:100B700024F92F7971F200C016B3012702FB25F981
:100B80002F7359F200C006B3102712FB26F922304A
:100B900040F200C016B3012702FB27F9243028F6E3
:100BA0004F77206816B30000F9CF10E41ABF002772
:100BB00019C03B503195C31BD04010E41ABF0881C7
:100BC000033CF9F00B34E9F020917C001981110FFE
:100BD0001213EDCF4A81441F093641F10D3211F055
:100BE000013E29F7009383003F914F911F910F9190
:100BF0002F91DF91CAB7C6FD4FCFCF91CFBFCF9115
:100C0000189520918300222379F3109181001123FC
:100C100069F534306AF13093810020937D001091A2
:100C20007E003BE0311B30937E0022C000918100AA
:100C30000130E4F40AE54F7049F43091610034FD6D
:100C400019C000936100C5E6D0E018C03091700073
:100C500034FD10C000937000C1E7D0E00FC02795AD
:100C6000A8F45150A9F4220F0000F9CF4AE503C0BF
:100C700042ED01C0432FC4E1D0E032E017B315606C
:100C8000C29A17BB08B320E415E05F93012756E032
:100C900008BB279520F4515021F4220FF9CF0127EA
:100CA00056E000003B5A08BBD0F2279528F451507B
:100CB00029F4220F0000F9CF012756E0279508BB41
:100CC00020F4515021F4220FF9CF012756E0299149
:100CD000332308BB21F60A7F10918200110FC65101
:100CE000D04008BB11F010937C0010E41ABF0460E0
:100CF00017B31A7F402F4A7F5F9100C000C008BB26
:100D000017BB48BB71CF0F931F93CF93DF931F92F5
:100D1000CDB7DEB700E0081781F014E6A895898307
:100D200085DDEFE2F5E73197F1F700C000001150E3
:100D300089811111F3CF0F5FEECF0F90DF91CF912B
:100D40001F910F910895089580E00895CF93DF9348
:100D500000D000D0CDB7DEB7B99A88B392E089272A
:100D600088BB2EE088E190E00FB6F894A89581BD8D
:100D70000FBE21BD68DEBA9A8AEFA895EFE6F7E1CB
:100D80003197F1F700C000008150B9F7BA98789414
:100D90008AE0B9DF00E010E082E0E82EF12CA895AF
:100DA00045DDFF2021F0F12C00E010E0F8CF88B302
:100DB0008E2588BBF801E258FF4F9491F801E15865
:100DC000FF4F84919F3F19F4FF24F394E8CF9130B3
:100DD00021F499DF0E5F1F4FE1CF2091700024FFB7
:100DE000FCCF9B838C8362E0CE010396FBDC0E5F1D
:100DF0001F4F8091700084FFFCCF19821A8262E03D
:100E0000CE010196EFDC8091700084FFFCCFC6CF4D
:040E1000F894FFCF84
:020E1400FF5A83
:00000001FF
